:020000040800F2
:1000000000280020F9100008891000088F1000084F
:10001000951000089B100008A110000800000000C7
:10002000000000000000000000000000A710000811
:10003000B310000800000000BF100008CB1000083B
:100040004111000841110008411100084111000848
:100050004111000841110008411100084111000838
:100060004111000841110008411100084111000828
:100070004111000841110008411100084111000818
:100080004111000841110008411100084111000808
:1000900041110008411100084111000841110008F8
:1000A00041110008411100084111000841110008E8
:1000B000D91000084111000800000000411100089B
:1000C000411100080000000000000000411100087C
:1000D000000000004111000841110008000000006C
:1000E0004111000841110008411100080000000002
:1000F0000000000000000000000000000000000000
:0C01000000000000000000005FF808F1A3
:10010C0010B5054C237833B9044B13B10448AFF345
:10011C0000800123237010BD7C0000200000000033
:10012C008827000808B5034B1BB103490348AFF3FC
:10013C00008008BD00000000800000208827000817
:10014C0080B483B000AF7860094A7B6852F82330E2
:10015C00012B06D1064A7B68002142F823100123AB
:10016C0000E0002318460C37BD4680BC704700BF2A
:10017C009800002080B483B000AF7860044A7B689C
:10018C00012142F8231000BF0C37BD4680BC7047DC
:10019C009800002080B582B000AF7860414A7B683F
:1001AC001B01134404331A683E497B681B010B4442
:1001BC001A603C4A7B681B01134408331A6839499E
:1001CC007B681B010B4404331A60374A7B6852F876
:1001DC0023301846354A7B6852F823309BB21946B7
:1001EC0001F094FA034619462E4A7B681B0113440E
:1001FC00083319602B4A7B681B0113441A68294980
:10020C007B681B010B4404331B689A4246D1254A78
:10021C007B681B01134404331A6822497B681B0159
:10022C000B4408331B689A4238D11E4A7B681B0169
:10023C0013440C331A681B497B681B010B440833AD
:10024C001B689A421AD0174A7B681B011344083367
:10025C001A6814497B681B010B440C331A60114A51
:10026C007B681B01134408331B68002B16D178687C
:10027C00FFF780FF0E4B64221A600FE00C4B1B68DB
:10028C00013B0B4A13600A4B1B68002B06D1054A35
:10029C007B681B0113440C3301221A6000BF083722
:1002AC00BD4680BD0000002044000020540000200A
:1002BC004000002080B500AF904B1B68013B042B25
:1002CC0000F2E08001A252F823F000BFED0200081A
:1002DC002703000883030008DD0300083704000827
:1002EC00864B02221A60864B1B68864A126811469E
:1002FC00184600F0ADFC834B1B68642202FB03F331
:10030C000021184600F024FE0121642000F020FE9C
:10031C000221192000F01CFEBDE001220121002069
:10032C0000F0AAFC01220021012000F0C7FC764B52
:10033C001B68012B13D1754B1B68744A126811464C
:10034C00184600F085FC714B1B68642202FB03F31A
:10035C000021184600F0FCFD684B03221A606A4B22
:10036C005B68012B40F0908000F05EFC0121642062
:10037C0000F0EEFD88E001220121002000F07CFC61
:10038C0000220121012000F099FC5F4B1B68012B1E
:10039C0013D15C4B1B685A4A12681146184600F080
:1003AC0057FC584B1B68642202FB03F300211846D0
:1003BC0000F0CEFD514B04221A60534B5B68012BAD
:1003CC0064D100F031FC0121642000F0C1FD5DE03E
:1003DC0001220021012000F04FFC0122012100200C
:1003EC0000F06CFC484B1B68012B13D1474B1B686E
:1003FC00464A12681146184600F02AFC434B1B680B
:10040C00642202FB03F30021184600F0A1FD3B4BD4
:10041C0005221A603C4B5B68012B39D100F004FCBF
:10042C000121642000F094FD32E000220121012022
:10043C0000F022FC01220121002000F03FFC324B95
:10044C001B68012B13D12E4B1B682E4A12681146C8
:10045C00184600F0FDFB2B4B1B68642202FB03F3D8
:10046C000021184600F074FD244B02221A60264B22
:10047C005B68012B0ED100F0D7FB0121642000F04A
:10048C0067FD07E000BF06E000BF04E000BF02E02C
:10049C0000BF00E000BF1C4B9B68012B14D100F087
:1004AC0083FB1B4B1B685A1C19490A60184600F049
:1004BC0003FB174B1B68032B02DD154B00221A6044
:1004CC000221192000F044FD0120FFF739FE0346FC
:1004DC00002B10D001220121012000F0CDFB0122C4
:1004EC000121012000F0EAFB0321642000F030FD23
:1004FC00024B0B221A6000BF80BD00BFAC00002075
:10050C006400002068000020F00000206C00002037
:10051C00A800002080B400AF074B1B68074A13608B
:10052C00074B1B68074A1360074B1B68074A13608D
:10053C0000BFBD4680BC7047640000202001002035
:10054C006C0000201C010020680000201801002015
:10055C0080B500AF884B1B680D2B00F0AF800D2BC6
:10056C0000F3FF800B2B02D00C2B54D0F9E0834B03
:10057C001B680221184600F06BFB814BDB68012BDA
:10058C000CD120217F4801F0F0F84FF480717D48A8
:10059C0001F0EBF80321642000F0DAFC0120FFF7F6
:1005AC00CFFD0346002B10D001220121012000F0C9
:1005BC0063FB01220121012000F080FB0321642058
:1005CC0000F0C6FC6C4B0C221A600220FFF7B8FD41
:1005DC000346002B0CD0694B1B680133674A136030
:1005EC00664B1B68632B03DD674B1B68634A136008
:1005FC000320FFF7A5FD0346002B00F0B5805F4BF1
:10060C001B68614A13605D4B1A68604B1B68D31AF8
:10061C005F4A1360A8E05F4B1B680321184600F08B
:10062C0017FB574BDB68012B0CD14021554801F0CF
:10063C009CF84FF40071534801F097F803216420A3
:10064C0000F086FC0120FFF77BFD0346002B10D049
:10065C0001220121012000F00FFB012201210120C8
:10066C0000F02CFB0321642000F072FC424B0D22A5
:10067C001A600220FFF764FD0346002B0CD0454B9B
:10068C001B680133434A1360424B1B68632B03DD29
:10069C003E4B1B683F4A13600320FFF751FD034696
:1006AC00002B63D03B4B1B68384A1360384B1A68DD
:1006BC00364B1B681344344A136057E0364B1B68A7
:1006CC000421184600F0C4FA2D4BDB68012B0CD129
:1006DC0080212C4801F049F84FF48061294801F041
:1006EC0044F80321642000F033FC0120FFF728FDBF
:1006FC000346002B10D001220121012000F0BCFA8E
:10070C0001220121012000F0D9FA0321642000F01C
:10071C001FFC194B01221A600220FFF711FD034642
:10072C00002B0CD01C4B1B6801331B4A13601A4B5B
:10073C001B68632B03DD164B1B68174A13600320E1
:10074C00FFF7FEFC0346002B12D0134B1B68104A1C
:10075C0013600F4B1A680D4B1B6813440A4A136045
:10076C0006E0FFF7D7FE04E000BF02E000BF00E0A8
:10077C0000BF00BF80BD00BFAC00002020010020E6
:10078C00F000002000080140640000206C000020F4
:10079C00680000201C0100201801002080B582B0E8
:1007AC0000AF78607B68092B00F2808101A252F8BF
:1007BC0023F000BFE9070008310800087908000899
:1007CC00C108000809090008510900089909000826
:1007DC00E1090008290A0008710A00080022012119
:1007EC00B44800F0AAFF00220221B24800F0A5FF95
:1007FC0000220421AF4800F0A0FF00220821AD48E0
:10080C0000F09BFF00221021AA4800F096FF002266
:10081C002021A84800F091FF01224021A54800F0BA
:10082C008CFF43E101220121A24800F086FF002247
:10083C000221A04800F081FF002204219D4800F015
:10084C007CFF012208219B4800F077FF0122102138
:10085C00984800F072FF01222021964800F06DFFAD
:10086C0001224021934800F068FF1FE10022012182
:10087C00904800F062FF002202218E4800F05DFFDC
:10088C00012204218B4800F058FF002208218948DE
:10089C0000F053FF00221021864800F04EFF012289
:1008AC002021844800F049FF00224021814800F0BB
:1008BC0044FFFBE0002201217E4800F03EFF0022B5
:1008CC0002217C4800F039FF00220421794800F015
:1008DC0034FF00220821774800F02FFF012210215D
:1008EC00744800F02AFF01222021724800F025FFF5
:1008FC00002240216F4800F020FFD7E001220121A7
:10090C006C4800F01AFF002202216A4800F015FF23
:10091C0000220421674800F010FF012208216548DD
:10092C0000F00BFF01221021624800F006FF0022AC
:10093C002021604800F001FF002240215D4800F0BA
:10094C00FCFEB3E0002201215A4800F0F6FE012221
:10095C000221584800F0F1FE00220421554800F015
:10096C00ECFE00220821534800F0E7FE0122102182
:10097C00504800F0E2FE002220214E4800F0DDFE3F
:10098C00002240214B4800F0D8FE8FE000220121CC
:10099C00484800F0D2FE01220221464800F0CDFE6C
:1009AC0000220421434800F0C8FE002208214148DF
:1009BC0000F0C3FE002210213E4800F0BEFE0022D3
:1009CC0020213C4800F0B9FE00224021394800F0BB
:1009DC00B4FE6BE000220121364800F0AEFE00228E
:1009EC000221344800F0A9FE00220421314800F015
:1009FC00A4FE012208212F4800F09FFE01221021A5
:100A0C002C4800F09AFE012220212A4800F095FE85
:100A1C0001224021274800F090FE47E000220121EE
:100A2C00244800F08AFE00220221224800F085FEB4
:100A3C00002204211F4800F080FE002208211D48DE
:100A4C0000F07BFE002210211A4800F076FE0022F6
:100A5C002021184800F071FE00224021154800F0BA
:100A6C006CFE23E000220121124800F066FE0022F9
:100A7C000221104800F061FE002204210D4800F014
:100A8C005CFE002208210B4800F057FE01221021C9
:100A9C00084800F052FE00222021064800F04DFECE
:100AAC0000224021034800F048FE00BF00BF083779
:100ABC00BD4680BD000C014080B582B000AF7860AF
:100ACC00374A7B6852F823301846FFF767FE7B687D
:100ADC00032B5FD801A252F823F000BFF90A0008DB
:100AEC00230B00084D0B0008770B00080022022195
:100AFC002C4800F022FE012204212A4800F01DFEA1
:100B0C0001220821274800F018FE01221021254857
:100B1C0000F013FE3FE001220221224800F00DFEFE
:100B2C00002204211F4800F008FE012208211D4864
:100B3C0000F003FE012210211A4800F0FEFD2AE00D
:100B4C0001220221174800F0F8FD0122042115486A
:100B5C0000F0F3FD00220821124800F0EEFD012206
:100B6C001021104800F0E9FD15E0012202210D488A
:100B7C0000F0E3FD012204210A4800F0DEFD012211
:100B8C000821084800F0D9FD00221021054800F08A
:100B9C00D4FD00E000BF00BF0837BD4680BD00BFDC
:100BAC00B80000200008014080B400AF1A4B1B684D
:100BBC001A4A82FB03129210DB17D31A184A1360DD
:100BCC00154B1968154B83FB01239A10CB17D21ABE
:100BDC0013469B0013445B00CA1A114B5A60114B0D
:100BEC001B680E4A82FB03129210DB17D31A0C4AB5
:100BFC0093600C4B1968094B83FB01239A10CB179C
:100C0C00D21A13469B0013445B00CA1A044BDA60D9
:100C1C0000BFBD4680BC7047B000002067666666AA
:100C2C00B8000020B400002080B400AF064B1B6855
:100C3C00013B054A1360054B1B68013B034A1360DB
:100C4C0000BFBD4680BC7047B0000020B40000203F
:100C5C0080B483B000AF78603960054A7B6813605C
:100C6C00044A3B68136000BF0C37BD4680BC70471C
:100C7C00B0000020B400002080B584B000AFF86054
:100C8C00B9607A60FB68DBB21A4620210A4800F092
:100C9C0054FDBB68DBB21A468021074800F04DFDBD
:100CAC007B68DBB21A464021034800F046FD00BFCA
:100CBC001037BD4680BD00BF0008014080B584B030
:100CCC0000AFF860B9607A60FB68DBB21A464FF48B
:100CDC0080710B4800F031FDBB68DBB21A464FF453
:100CEC008061074800F029FD7B68DBB21A464FF49F
:100CFC000071034800F021FD00BF1037BD4680BDD8
:100D0C000008014080B500AF00F016FA00F014F8AE
:100D1C0000F09AF800F04CF8054801F06BF9054B1F
:100D2C0001221A60FFF7C6FAFFF712FCFAE700BFC0
:100D3C0024010020AC00002080B590B000AF07F17A
:100D4C00180328220021184601F010FD3B1D00223B
:100D5C001A605A609A60DA601A610223BB6101233F
:100D6C00BB621023FB6200237B6307F11803184658
:100D7C0000F014FD0346002B01D000F0E4F80F2323
:100D8C007B600023BB600023FB6000233B610023DE
:100D9C007B613B1D0021184600F080FF0346002BB1
:100DAC0001D000F0D0F800BF4037BD4680BD000038
:100DBC0080B586B000AF07F1080300221A605A60B4
:100DCC009A60DA603B4600221A605A601D4B4FF065
:100DDC0080421A601B4B41F63F725A60194B00223D
:100DEC009A60184B0922DA60164B00221A61154BD7
:100DFC0000229A61134801F0ADF80346002B01D094
:100E0C0000F0A1F84FF48053BB6007F108031946BA
:100E1C000C4801F043FA0346002B01D000F093F884
:100E2C0000233B6000237B603B461946054801F0DC
:100E3C000FFC0346002B01D000F085F800BF1837DB
:100E4C00BD4680BD2401002080B586B000AF07F1FF
:100E5C00080300221A605A609A60DA60284B9B697A
:100E6C00274A43F004039361254B9B6903F0040369
:100E7C007B607B68224B9B69214A43F0080393619A
:100E8C001F4B9B6903F008033B603B68002240F258
:100E9C00FE711C4800F051FC00227F211A4800F022
:100EAC004CFC40F2FE73BB600123FB6000233B61F2
:100EBC0002237B6107F108031946124800F0ACFAD3
:100ECC007F23BB600123FB6000233B6102237B611A
:100EDC0007F1080319460C4800F09EFA4FF46053D2
:100EEC00BB600023FB6001233B6107F1080319463B
:100EFC00054800F091FA00BF1837BD4680BD00BF11
:100F0C000010024000080140000C014080B582B086
:100F1C0000AF7860002000F033F8012000F030F8CA
:100F2C00022000F02DF8032000F02AF80120FFF732
:100F3C0031F90220FFF72EF90320FFF72BF900BF40
:100F4C000837BD4680BD80B400AF72B600BFFEE767
:100F5C0080B483B000AF7860396007493B687A6829
:100F6C0041F82320054A3B68002142F8231000BFBA
:100F7C000C37BD4680BC7047C8000020F000002034
:100F8C0080B483B000AF78600F4A7B6852F823308E
:100F9C00002B13DD0C4A7B6852F823305A1E0A4989
:100FAC007B6841F82320084A7B6852F82330002BD9
:100FBC0004DC064A7B68012142F8231000BF0C3781
:100FCC00BD4680BC704700BFC8000020F000002068
:100FDC0080B485B000AF154B9B69144A43F00103F4
:100FEC009361124B9B6903F00103BB60BB680F4B11
:100FFC00DB690E4A43F08053D3610C4BDB6903F081
:10100C0080537B607B680A4B5B68FB60FB6823F05A
:10101C00E063FB60FB6843F08063FB60044AFB68A1
:10102C00536000BF1437BD4680BC704700100240AF
:10103C000000014080B584B000AF78607B681B680D
:10104C00B3F1804F13D10C4BDB690B4A43F0010316
:10105C00D361094BDB6903F00103FB60FB680022E1
:10106C0000211C2000F0A1F91C2000F0BAF900BFEF
:10107C001037BD4680BD00BF0010024080B400AFE9
:10108C00FEE780B400AFFEE780B400AFFEE780B4AB
:10109C0000AFFEE780B400AFFEE780B400AF00BF46
:1010AC00BD4680BC704780B400AF00BFBD4680BC5D
:1010BC00704780B400AF00BFBD4680BC704780B5A0
:1010CC0000AF00F07FF800BF80BD000080B500AF1E
:1010DC00024800F0DBFF00BF80BD00BF24010020F0
:1010EC0080B400AF00BFBD4680BC7047FFF7F8FF6F
:1010FC000B480C490C4A002302E0D458C45004336A
:10110C00C4188C42F9D3094A094C002301E013603E
:10111C000432A242FBD301F005FBFFF7F3FD70474D
:10112C00000000207C000020CC2700087C00002060
:10113C0070010020FEE7000080B500AF084B1B6873
:10114C00074A43F010031360032000F023F90F202B
:10115C0000F008F8FFF73CFF0023184680BD00BFE5
:10116C000020024080B582B000AF7860124B1A6844
:10117C00124B1B7819464FF47A73B3FBF1F3B2FBA5
:10118C00F3F3184600F03BF90346002B01D0012382
:10119C000EE07B680F2B0AD8002279684FF0FF30E5
:1011AC0000F003F9064A7B681360002300E001237A
:1011BC0018460837BD4680BD70000020780000201E
:1011CC007400002080B400AF054B1B781A46054B09
:1011DC001B681344034A136000BFBD4680BC7047B4
:1011EC00780000206C01002080B400AF024B1B681B
:1011FC001846BD4680BC70476C01002080B485B099
:10120C0000AF78607B6803F00703FB600C4BDB6876
:10121C00BB60BA684FF6FF031340BB60FB681A0251
:10122C00BB68134343F0BF6343F40033BB60044A11
:10123C00BB68D36000BF1437BD4680BC704700BF8D
:10124C0000ED00E080B400AF044BDB681B0A03F038
:10125C0007031846BD4680BC704700BF00ED00E098
:10126C0080B483B000AF0346FB7197F90730002BB5
:10127C000BDBFB7903F01F02064997F907305B097A
:10128C00012000FA02F241F8232000BF0C37BD46C2
:10129C0080BC704700E100E080B483B000AF03462F
:1012AC003960FB7197F90730002B0ADB3B68DAB227
:1012BC000C4997F907301201D2B20B4483F8002382
:1012CC000AE03B68DAB20849FB7903F00F03043BF0
:1012DC001201D2B20B441A7600BF0C37BD4680BC4B
:1012EC00704700BF00E100E000ED00E080B489B081
:1012FC0000AFF860B9607A60FB6803F00703FB612C
:10130C00FB69C3F10703042B28BF0423BB61FB69F2
:10131C000433062B02D9FB69033B00E000237B61FD
:10132C004FF0FF32BB6902FA03F3DA43BB681A4091
:10133C007B699A404FF0FF317B6901FA03F3D94383
:10134C007B680B40134318462437BD4680BC70475E
:10135C0080B582B000AF78607B68013BB3F1807FD1
:10136C0001D301230FE00A4A7B68013B53600F2134
:10137C004FF0FF30FFF790FF054B00229A60044BB3
:10138C0007221A60002318460837BD4680BD00BFEF
:10139C0010E000E080B582B000AF78607868FFF7AD
:1013AC002DFF00BF0837BD4680BD80B586B000AFAD
:1013BC000346B9607A60FB7300237B61FFF742FF41
:1013CC0078617A68B9687869FFF790FF024697F9F7
:1013DC000F3011461846FFF75FFF00BF1837BD46A8
:1013EC0080BD80B582B000AF0346FB7197F9073022
:1013FC001846FFF735FF00BF0837BD4680BD80B5E6
:10140C0082B000AF78607868FFF7A2FF03461846F9
:10141C000837BD4680BD000080B48BB000AF78604B
:10142C00396000237B6200233B6248E101227B6A26
:10143C0002FA03F3FB613B681B68FA691340BB615A
:10144C00BA69FB699A4240F037813B685B68A34AF2
:10145C0093425ED0A14A934275D8A14A934258D088
:10146C009F4A93426FD89F4A934252D09D4A9342CF
:10147C0069D89D4A93424CD09B4A934263D89B4A6D
:10148C00934246D0994A93425DD8122B2AD8122BFC
:10149C0059D801A252F823F01F150008F9140008BE
:1014AC000B1500084D1500085315000853150008BE
:1014BC005315000853150008531500085315000860
:1014CC005315000853150008531500085315000850
:1014DC005315000853150008531500080115000892
:1014EC0015150008824A934213D02CE03B68DB6848
:1014FC003B6229E03B68DB6804333B6224E03B68D9
:10150C00DB6808333B621FE03B68DB680C333B62F3
:10151C001AE03B689B68002B02D104233B6213E06A
:10152C003B689B68012B05D108233B627B68FA69F9
:10153C001A6109E008233B627B68FA695A6103E08F
:10154C0000233B6200E000BFBB69FF2B01D87B6826
:10155C0001E07B6804337B61BB69FF2B02D87B6A9B
:10156C009B0002E07B6A083B9B003B617B691A682D
:10157C000F213B6901FA03F3DB431A40396A3B69DB
:10158C0001FA03F31A437B691A603B685B6803F04A
:10159C008053002B00F09080564B9B69554A43F0CA
:1015AC0001039361534B9B6903F00103BB60BB6860
:1015BC00514A7B6A9B08023352F82330FB607B6AEA
:1015CC0003F003039B000F2202FA03F3DB43FA68D8
:1015DC001340FB607B68494A93420DD07B68484AB4
:1015EC00934207D07B68474A934201D1022304E01F
:1015FC00032302E0012300E000237A6A02F00302D5
:10160C0092009340FA681343FB603B497B6A9B084A
:10161C000233FA6841F823203B685B6803F48013BB
:10162C00002B06D0384B9A683749BB6913438B6043
:10163C0006E0354B9A68BB69DB43334913408B603A
:10164C003B685B6803F40013002B06D02E4BDA6862
:10165C002D49BB691343CB6006E02B4BDA68BB69A1
:10166C00DB4329491340CB603B685B6803F40033D0
:10167C00002B06D0244B5A682349BB6913434B609B
:10168C0006E0214B5A68BB69DB431F4913404B6092
:10169C003B685B6803F48033002B06D01A4B1A6846
:1016AC001949BB6913430B6006E0174B1A68BB69F9
:1016BC00DB43154913400B607B6A01337B623B684B
:1016CC001A687B6A22FA03F3002B7FF4AFAE00BFDB
:1016DC0000BF2C37BD4680BC704700BF00003210E5
:1016EC000000311000002210000021100000121028
:1016FC0000001110001002400000014000080140E1
:10170C00000C0140001001400004014080B485B081
:10171C0000AF78600B467B807B689A687B881340AF
:10172C00002B02D00123FB7301E00023FB73FB7B36
:10173C0018461437BD4680BC704780B483B000AFE8
:10174C0078600B467B8013467B707B78002B03D034
:10175C007A887B681A6103E07B881A047B681A61BB
:10176C0000BF0C37BD4680BC704780B485B000AF5D
:10177C0078600B467B807B68DB68FB607A88FB6853
:10178C0013401A04FB68D9437B880B401A437B68CF
:10179C001A6100BF1437BD4680BC704780B586B057
:1017AC0000AF78607B68002B01D101236CE27B6871
:1017BC001B6803F00103002B00F08780924B5B68E1
:1017CC0003F00C03042B0CD08F4B5B6803F00C0361
:1017DC00082B12D18C4B5B6803F48033B3F5803F3C
:1017EC000BD1894B1B6803F40033002B6CD07B6846
:1017FC005B68002B68D1012346E27B685B68B3F51C
:10180C00803F06D1804B1B687F4A43F480331360C2
:10181C002EE07B685B68002B0CD17B4B1B687A4AF3
:10182C0023F480331360784B1B68774A23F48023AE
:10183C0013601DE07B685B68B3F5A02F0CD1724B75
:10184C001B68714A43F4802313606F4B1B686E4A0C
:10185C0043F4803313600BE06B4B1B686A4A23F430
:10186C0080331360684B1B68674A23F48023136032
:10187C007B685B68002B13D0FFF7B6FC386108E07F
:10188C00FFF7B2FC02463B69D31A642B01D9032340
:10189C00FAE15D4B1B6803F40033002BF0D014E02D
:1018AC00FFF7A2FC386108E0FFF79EFC02463B699B
:1018BC00D31A642B01D90323E6E1534B1B6803F4C1
:1018CC000033002BF0D100E000BF7B681B6803F0F5
:1018DC000203002B63D04C4B5B6803F00C03002B12
:1018EC000BD0494B5B6803F00C03082B1CD1464B07
:1018FC005B6803F48033002B16D1434B1B6803F059
:10190C000203002B05D07B681B69012B01D001233E
:10191C00BAE13D4B1B6823F0F8027B685B69DB0086
:10192C00394913430B603AE07B681B69002B20D0CC
:10193C00364B01221A60FFF757FC386108E0FFF7BD
:10194C0053FC02463B69D31A022B01D903239BE1BA
:10195C002D4B1B6803F00203002BF0D02A4B1B68A5
:10196C0023F0F8027B685B69DB00274913430B60AB
:10197C0015E0264B00221A60FFF736FC386108E0B0
:10198C00FFF732FC02463B69D31A022B01D9032321
:10199C007AE11D4B1B6803F00203002BF0D17B682E
:1019AC001B6803F00803002B3AD07B689B69002B63
:1019BC0019D0174B01221A60FFF716FC386108E0AA
:1019CC00FFF712FC02463B69D31A022B01D9032301
:1019DC005AE10D4B5B6A03F00203002BF0D001209F
:1019EC0000F09AFA1CE00A4B00221A60FFF7FCFB8D
:1019FC0038610FE0FFF7F8FB02463B69D31A022B64
:101A0C0008D9032340E100BF00100240000042420D
:101A1C00800442429E4B5B6A03F00203002BE9D127
:101A2C007B681B6803F00403002B00F0A6800023E6
:101A3C00FB75974BDB6903F08053002B0DD1944B56
:101A4C00DB69934A43F08053D361914BDB6903F01C
:101A5C008053BB60BB680123FB758E4B1B6803F482
:101A6C008073002B18D18B4B1B688A4A43F480730C
:101A7C001360FFF7B9FB386108E0FFF7B5FB0246CE
:101A8C003B69D31A642B01D90323FDE0814B1B68FE
:101A9C0003F48073002BF0D07B68DB68012B06D13C
:101AAC007B4B1B6A7A4A43F0010313622DE07B687F
:101ABC00DB68002B0CD1764B1B6A754A23F00103B3
:101ACC001362734B1B6A724A23F0040313621CE00B
:101ADC007B68DB68052B0CD16D4B1B6A6C4A43F0A1
:101AEC00040313626A4B1B6A694A43F001031362D5
:101AFC000BE0674B1B6A664A23F001031362644BCD
:101B0C001B6A634A23F0040313627B68DB68002BB7
:101B1C0015D0FFF769FB38610AE0FFF765FB024659
:101B2C003B69D31A41F28832934201D90323ABE0CB
:101B3C00574B1B6A03F00203002BEED014E0FFF7A7
:101B4C0053FB38610AE0FFF74FFB02463B69D31A9F
:101B5C0041F28832934201D9032395E04C4B1B6A26
:101B6C0003F00203002BEED1FB7D012B05D1484B7A
:101B7C00DB69474A23F08053D3617B68DB69002B18
:101B8C0000F08180424B5B6803F00C03082B61D0A2
:101B9C007B68DB69022B46D13F4B00221A60FFF7B2
:101BAC0023FB386108E0FFF71FFB02463B69D31AA1
:101BBC00022B01D9032367E0354B1B6803F000733C
:101BCC00002BF0D17B681B6AB3F5803F08D1304BFA
:101BDC005B6823F400327B689B682D4913434B6090
:101BEC002B4B5B6823F474127B68196A7B685B6A05
:101BFC000B43274913434B60274B01221A60FFF715
:101C0C00F3FA386108E0FFF7EFFA02463B69D31AA2
:101C1C00022B01D9032337E01D4B1B6803F0007323
:101C2C00002BF0D02FE01C4B00221A60FFF7DCFADF
:101C3C00386108E0FFF7D8FA02463B69D31A022B49
:101C4C0001D9032320E0124B1B6803F00073002B17
:101C5C00F0D118E07B68DB69012B01D1012313E083
:101C6C000B4B5B68FB60FB6803F480327B681B6A80
:101C7C009A4206D1FB6803F470127B685B6A9A4245
:101C8C0001D0012300E0002318461837BD4680BD63
:101C9C0000100240007000406000424280B584B0E9
:101CAC0000AF786039607B68002B01D10123D0E054
:101CBC006A4B1B6803F007033A689A4210D9674BCA
:101CCC001B6823F0070265493B6813430B60634BA9
:101CDC001B6803F007033A689A4201D00123B8E06D
:101CEC007B681B6803F00203002B20D07B681B6809
:101CFC0003F00403002B05D0594B5B68584A43F49E
:101D0C00E06353607B681B6803F00803002B05D06D
:101D1C00534B5B68524A43F460535360504B5B68BF
:101D2C0023F0F0027B689B684D4913434B607B6842
:101D3C001B6803F00103002B40D07B685B68012B10
:101D4C0007D1474B1B6803F40033002B15D101233B
:101D5C007FE07B685B68022B07D1414B1B6803F06B
:101D6C000073002B09D1012373E03D4B1B6803F07A
:101D7C000203002B01D101236BE0394B5B6823F08C
:101D8C0003027B685B68364913434B60FFF72CFA00
:101D9C00F8600AE0FFF728FA0246FB68D31A41F212
:101DAC008832934201D9032353E02D4B5B6803F037
:101DBC000C027B685B689B009A42EBD1274B1B683B
:101DCC0003F007033A689A4210D2244B1B6823F0A5
:101DDC00070222493B6813430B60204B1B6803F03E
:101DEC0007033A689A4201D0012332E07B681B68F2
:101DFC0003F00403002B08D0194B5B6823F4E0625A
:101E0C007B68DB68164913434B607B681B6803F0E7
:101E1C000803002B09D0124B5B6823F460527B68DB
:101E2C001B69DB000E4913434B6000F021F802469E
:101E3C000B4B5B681B0903F00F030A49CB5C22FABE
:101E4C0003F3094A1360094B1B681846FFF78AF91C
:101E5C00002318461037BD4680BD00BF002002404D
:101E6C0000100240A0270008700000207400002021
:101E7C0080B487B000AF0023FB600023BB6000235D
:101E8C007B6100237B6000233B611E4B5B68FB6026
:101E9C00FB6803F00C03042B02D0082B03D027E0C3
:101EAC00194B3B6127E0FB689B0C03F00F03174AAF
:101EBC00D35C7B60FB6803F48033002B10D0114B98
:101ECC005B685B0C03F00103114AD35CBB607B685D
:101EDC000D4A02FB03F2BB68B2FBF3F37B6104E037
:101EEC007B680C4A02FB03F37B617B693B6102E07C
:101EFC00054B3B6100BF3B6918461C37BD4680BC97
:101F0C00704700BF0010024000127A00B027000892
:101F1C00C027000800093D0080B485B000AF786090
:101F2C000A4B1B680A4AA2FB03235B0A7A6802FB72
:101F3C0003F3FB6000BFFB685A1EFA60002BF9D15B
:101F4C0000BF00BF1437BD4680BC70477000002036
:101F5C00D34D621080B582B000AF78607B68002BE7
:101F6C0001D1012341E07B6893F83D30DBB2002BBB
:101F7C0006D17B68002283F83C207868FFF75AF87A
:101F8C007B68022283F83D207B681A687B680433E7
:101F9C001946104600F06EFA7B68012283F8462041
:101FAC007B68012283F83E207B68012283F83F2066
:101FBC007B68012283F840207B68012283F8412052
:101FCC007B68012283F842207B68012283F843203E
:101FDC007B68012283F844207B68012283F845202A
:101FEC007B68012283F83D20002318460837BD4644
:101FFC0080BD000080B485B000AF78607B6893F83A
:10200C003D30DBB2012B01D0012335E07B6802228D
:10201C0083F83D207B681B68DA687B681B6842F09C
:10202C000102DA607B681B68164A934209D07B6810
:10203C001B68B3F1804F04D07B681B68124A934233
:10204C0011D17B681B689B6803F00703FB60FB687E
:10205C00062B10D07B681B681A687B681B6842F0E3
:10206C0001021A6007E07B681B681A687B681B68B2
:10207C0042F001021A60002318461437BD4680BC9A
:10208C00704700BF002C01400004004080B582B0B6
:10209C0000AF78607B681B681B6903F00203022B9E
:1020AC0022D17B681B68DB6803F00203022B1BD177
:1020BC007B681B686FF002021A617B6801221A7739
:1020CC007B681B689B6903F00303002B03D07868C3
:1020DC0000F0B4F905E0786800F0A7F9786800F032
:1020EC00B6F97B6800221A777B681B681B6903F0C2
:1020FC000403042B22D17B681B68DB6803F0040308
:10210C00042B1BD17B681B686FF004021A617B687F
:10211C0002221A777B681B689B6903F44073002BBF
:10212C0003D0786800F08AF905E0786800F07DF952
:10213C00786800F08CF97B6800221A777B681B6842
:10214C001B6903F00803082B22D17B681B68DB6832
:10215C0003F00803082B1BD17B681B686FF0080287
:10216C001A617B6804221A777B681B68DB6903F0B1
:10217C000303002B03D0786800F060F905E0786861
:10218C0000F053F9786800F062F97B6800221A7746
:10219C007B681B681B6903F01003102B22D17B6832
:1021AC001B68DB6803F01003102B1BD17B681B68CA
:1021BC006FF010021A617B6808221A777B681B6823
:1021CC00DB6903F44073002B03D0786800F036F918
:1021DC0005E0786800F029F9786800F038F97B6838
:1021EC0000221A777B681B681B6903F00103012B23
:1021FC000ED17B681B68DB6803F00103012B07D150
:10220C007B681B686FF001021A617868FEF77EFE2E
:10221C007B681B681B6903F08003802B0ED17B68E5
:10222C001B68DB6803F08003802B07D17B681B687D
:10223C006FF080021A61786800F06BFA7B681B689B
:10224C001B6903F04003402B0ED17B681B68DB68D5
:10225C0003F04003402B07D17B681B686FF04002F2
:10226C001A61786800F0FCF87B681B681B6903F046
:10227C002003202B0ED17B681B68DB6803F0200346
:10228C00202B07D17B681B686FF020021A617868DD
:10229C0000F036FA00BF0837BD4680BD80B584B06B
:1022AC0000AF786039600023FB737B6893F83C3097
:1022BC00012B01D10223B4E07B68012283F83C207E
:1022CC007B68022283F83D207B681B689B68BB609F
:1022DC00BB6823F07703BB60BB6823F47F43BB6010
:1022EC007B681B68BA689A603B681B68B3F5005F33
:1022FC003ED0B3F5005F00F28780B3F5805F00F04D
:10230C008680B3F5805F7FD8702B1AD0702B7BD86A
:10231C00602B50D0602B77D8502B3CD0502B73D8DF
:10232C00402B58D0402B6FD8302B64D0302B6BD82F
:10233C00202B60D0202B67D8002B5CD0102B5AD0D0
:10234C0062E07B6818683B6899683B685A683B6830
:10235C00DB6800F05EF97B681B689B68BB60BB6840
:10236C0043F07703BB607B681B68BA689A604FE0E8
:10237C007B6818683B6899683B685A683B68DB68FF
:10238C0000F047F97B681B689A687B681B6842F40D
:10239C0080429A603CE07B6818683B6859683B68EF
:1023AC00DB681A4600F0BEF87B681B6850211846A3
:1023BC0000F015F92CE07B6818683B6859683B689D
:1023CC00DB681A4600F0DCF87B681B686021184655
:1023DC0000F005F91CE07B6818683B6859683B689D
:1023EC00DB681A4600F09EF87B681B684021184693
:1023FC0000F0F5F80CE07B681A683B681B6819461E
:10240C00104600F0ECF803E00123FB7300E000BF82
:10241C007B68012283F83D207B68002283F83C20F6
:10242C00FB7B18461037BD4680BD80B483B000AF2F
:10243C00786000BF0C37BD4680BC704780B483B059
:10244C0000AF786000BF0C37BD4680BC704780B4CD
:10245C0083B000AF786000BF0C37BD4680BC7047BE
:10246C0080B483B000AF786000BF0C37BD4680BC31
:10247C007047000080B485B000AF786039607B682D
:10248C001B68FB607B68254A934207D07B68B3F1DD
:10249C00804F03D07B68224A934208D1FB6823F01B
:1024AC007003FB603B685B68FA681343FB607B68F6
:1024BC001A4A934207D07B68B3F1804F03D07B68F4
:1024CC00174A934208D1FB6823F44073FB603B68C6
:1024DC00DB68FA681343FB60FB6823F080023B68FF
:1024EC005B691343FB607B68FA681A603B689A6807
:1024FC007B68DA623B681A687B689A627B68074A79
:10250C00934203D13B681A697B681A637B6801228A
:10251C005A6100BF1437BD4680BC7047002C014087
:10252C000004004080B487B000AFF860B9607A60F6
:10253C00FB681B6A7B61FB681B6A23F00102FB686A
:10254C001A62FB689B693B613B6923F0F0033B61BA
:10255C007B681B013A6913433B617B6923F00A03D7
:10256C007B617A69BB6813437B61FB683A699A614A
:10257C00FB687A691A6200BF1C37BD4680BC704785
:10258C0080B487B000AFF860B9607A60FB681B6AF2
:10259C007B61FB681B6A23F01002FB681A62FB6804
:1025AC009B693B613B6923F470433B617B681B0374
:1025BC003A6913433B617B6923F0A0037B61BB68E1
:1025CC001B017A6913437B61FB683A699A61FB686A
:1025DC007A691A6200BF1C37BD4680BC704780B454
:1025EC0085B000AF786039607B689B68FB60FB68E6
:1025FC0023F07003FB603A68FB68134343F0070356
:10260C00FB607B68FA689A6000BF1437BD4680BCDB
:10261C00704780B487B000AFF860B9607A603B60F7
:10262C00FB689B687B617B6923F47F437B613B6820
:10263C001A027B681A43BB6813437A6913437B61A4
:10264C00FB687A699A6000BF1C37BD4680BC704736
:10265C0080B485B000AF786039607B6893F83C300B
:10266C00012B01D1022341E07B68012283F83C203D
:10267C007B68022283F83D207B681B685B68FB60EB
:10268C007B681B689B68BB60FB6823F07003FB6076
:10269C003B681B68FA681343FB607B681B68FA682D
:1026AC005A607B681B68144A934209D07B681B688C
:1026BC00B3F1804F04D07B681B68104A93420CD155
:1026CC00BB6823F08003BB603B685B68BA6813434C
:1026DC00BB607B681B68BA689A607B68012283F8D0
:1026EC003D207B68002283F83C20002318461437D9
:1026FC00BD4680BC704700BF002C01400004004068
:10270C0080B483B000AF786000BF0C37BD4680BC8E
:10271C00704780B483B000AF786000BF0C37BD4603
:10272C0080BC704770B500260C4D0D4C641BA4107A
:10273C00A64209D100F022F800260A4D0A4C641B6F
:10274C00A410A64205D170BD55F8043B984701363C
:10275C00EEE755F8043B98470136F2E7C42700082A
:10276C00C4270008C4270008C827000803460244F1
:10277C00934200D1704703F8011BF9E7F8B500BF8D
:10278C00F8BC08BC9E467047F8B500BFF8BC08BC46
:04279C009E4670479E
:1027A0000000000000000000010203040607080901
:1027B00002030405060708090A0B0C0D0E0F101082
:0427C0000102000012
:0427C40031010008D7
:0427C8000D010008F7
:1027CC0000000000000000000000000000000000FD
:1027DC0001000000010000000100000001000000E9
:1027EC0001000000010000000100000001000000D9
:1027FC0001000000010000000100000001000000C9
:10280C006400000000000000000C0140000C0140BE
:10281C00000C014000000000000800000010000047
:10282C000020000005000000030000000200000072
:0C283C000024F400100000000100000067
:04000005080010F9E6
:00000001FF
