:020000040800F2
:10000000002800201D150008AD140008B3140008D6
:10001000B9140008BF140008C5140008000000004F
:10002000000000000000000000000000CB140008E9
:10003000D714000800000000E3140008EF140008C3
:1000400065150008651500086515000865150008A8
:100050006515000865150008651500086515000898
:100060006515000865150008651500086515000888
:100070006515000865150008651500086515000878
:100080006515000865150008651500086515000868
:100090006515000865150008651500086515000858
:1000A0006515000865150008651500086515000848
:1000B000FD14000865150008000000006515000823
:1000C000651500080000000000000000651500082C
:1000D000000000006515000865150008000000001C
:1000E000651500086515000865150008000000008A
:1000F0000000000000000000000000000000000000
:0C01000000000000000000005FF808F1A3
:10010C0010B5054C237833B9044B13B10448AFF345
:10011C0000800123237010BD94000020000000001B
:10012C00AC2B000808B5034B1BB103490348AFF3D4
:10013C00008008BD0000000098000020AC2B0008D7
:10014C0080B483B000AF7860094A7B6852F82330E2
:10015C00012B06D1064A7B68002142F823100123AB
:10016C0000E0002318460C37BD4680BC704700BF2A
:10017C00B000002080B483B000AF7860044A7B6884
:10018C00012142F8231000BF0C37BD4680BC7047DC
:10019C00B000002080B582B000AF7860414A7B6827
:1001AC001B01134404331A683E497B681B010B4442
:1001BC001A603C4A7B681B01134408331A6839499E
:1001CC007B681B010B4404331A60374A7B6852F876
:1001DC0023301846354A7B6852F823309BB21946B7
:1001EC0001F0A6FC034619462E4A7B681B011344FA
:1001FC00083319602B4A7B681B0113441A68294980
:10020C007B681B010B4404331B689A4246D1254A78
:10021C007B681B01134404331A6822497B681B0159
:10022C000B4408331B689A4238D11E4A7B681B0169
:10023C0013440C331A681B497B681B010B440833AD
:10024C001B689A421AD0174A7B681B011344083367
:10025C001A6814497B681B010B440C331A60114A51
:10026C007B681B01134408331B68002B16D178687C
:10027C00FFF780FF0E4B64221A600FE00C4B1B68DB
:10028C00013B0B4A13600A4B1B68002B06D1054A35
:10029C007B681B0113440C3301221A6000BF083722
:1002AC00BD4680BD0000002044000020540000200A
:1002BC004000002080B500AFB34B1B68013B042B02
:1002CC0000F23D8101A252F823F000BFED020008BC
:1002DC0027030008B10300083B040008C30400080E
:1002EC00A94B02221A60A94B1B68A94A1268114635
:1002FC00184600F09FFDA64B1B68642202FB03F31B
:10030C000021184601F036F80121642001F032F882
:10031C000221192001F02EF81AE1012201210020FE
:10032C0000F09CFD01220021012000F0B9FD994B49
:10033C001B68012B13D1984B1B68974A1268114606
:10034C00184600F077FD944B1B68642202FB03F304
:10035C000021184601F00EF88B4B03221A608D4BCE
:10036C005B68012B05D100F051FD0121642001F0E7
:10037C0001F80120FFF7E4FE0346002B00F0E180BA
:10038C0001220121012000F069FD0122012101203F
:10039C0000F086FD0321642000F0ECFF7A4B0B2269
:1003AC001A60CEE001220121002000F057FD00224E
:1003BC000121012000F074FD764B1B68012B13D139
:1003CC00734B1B68714A12681146184600F032FDD7
:1003DC006F4B1B68642202FB03F30021184600F0EC
:1003EC00C9FF694B04221A606A4B5B68012B05D16B
:1003FC0000F00CFD0121642000F0BCFF0120FFF790
:10040C009FFE0346002B00F09E800122012101205B
:10041C0000F024FD01220121012000F041FD032107
:10042C00642000F0A7FF584B0B221A608BE00122CE
:10043C000021012000F012FD01220121002000F01A
:10044C002FFD544B1B68012B13D1534B1B68524A85
:10045C0012681146184600F0EDFC4F4B1B686422E5
:10046C0002FB03F30021184600F084FF464B0522E3
:10047C001A60484B5B68012B05D100F0C7FC0121C9
:10048C00642000F077FF0120FFF75AFE0346002B93
:10049C005BD001220121012000F0E0FC01220121AE
:1004AC00012000F0FDFC0321642000F063FF364BBB
:1004BC000B221A6049E000220121012000F0CEFC41
:1004CC0001220121002000F0EBFC324B1B68012BB8
:1004DC0013D12E4B1B682E4A12681146184600F099
:1004EC00A9FC2B4B1B68642202FB03F3002118466A
:1004FC0000F040FF244B02221A60264B5B68012B54
:10050C0005D100F083FC0121642000F033FF0120B1
:10051C00FFF716FE0346002B19D001220121012002
:10052C0000F09CFC01220121012000F0B9FC032108
:10053C00642000F01FFF144B0B221A6007E000BF71
:10054C0006E000BF04E000BF02E000BF00E000BF17
:10055C00104B9B68012B14D100F018FC0F4B1B683F
:10056C005A1C0E490A60184600F098FB0B4B1B688E
:10057C00032B02DD094B00221A600221192000F026
:10058C00F9FE00BF80BD00BFC80000206400002041
:10059C0068000020340100206C000020C000002006
:1005AC0080B400AF074B1B68074A1360074B1B68EE
:1005BC00074A1360074B1B68074A136000BFBD4610
:1005CC0080BC704764000020640100206C00002097
:1005DC0060010020680000205C01002080B500AFA5
:1005EC00514B1B680D2B69D00D2B00F398800B2BF6
:1005FC0002D00C2B31D092E04C4B1B6802211846D8
:10060C0000F018FC4A4BDB68012B0CD12021494827
:10061C0001F0BDFA4FF48071464801F0B8FA03219D
:10062C00642000F0A7FE0120FFF78AFD0346002B93
:10063C0010D001220121012000F010FC0122012127
:10064C00012000F02DFC0321642000F093FE364BBA
:10065C000C221A6000F026F964E0374B1B6803216A
:10066C00184600F0E7FB324BDB68012B0CD1402124
:10067C00304801F08CFA4FF400712E4801F087FAE3
:10068C000321642000F076FE0120FFF759FD03469C
:10069C00002B10D001220121012000F0DFFB0122F0
:1006AC000121012000F0FCFB0321642000F062FE1C
:1006BC001D4B0D221A6000F0F5F833E01F4B1B6840
:1006CC000421184600F0B6FB194BDB68012B0CD14A
:1006DC008021184801F05BFA4FF48061154801F055
:1006EC0056FA0321642000F045FE0120FFF728FD97
:1006FC000346002B10D001220121012000F0AEFB9B
:10070C0001220121012000F0CBFB0321642000F029
:10071C0031FE054B01221A6000F0C4F802E0FFF72D
:10072C003FFF00BF00BF80BDC80000206401002057
:10073C003401002000080140600100205C01002011
:10074C0080B400AF1E4B1B680D2B20D00D2B2BDC67
:10075C000B2B02D00C2B0DD026E01A4B1B6801334F
:10076C00184A1360174B1B68632B1FDD154B0022B7
:10077C001A601BE0144B1B680133134A1360124BB5
:10078C001B68632B14DD104B00221A6010E00F4B1A
:10079C001B6801330D4A13600C4B1B68632B09DD7E
:1007AC000A4B00221A6005E000BF04E000BF02E023
:1007BC0000BF00E000BF00BFBD4680BC704700BF5B
:1007CC00C800002064010020600100205C010020B2
:1007DC0080B483B000AF00237B602B4B1B680D2BC8
:1007EC0034D00D2B49DC0B2B02D00C2B17D044E052
:1007FC00264B1A68264B1B68D31A7B60234B1B684D
:10080C00234A1360234B1A687B681344214A1360F4
:10081C00214B1A687B6813441F4A13602EE01F4B50
:10082C001A681F4B1B68D31A7B601C4B1B681C4A35
:10083C001360174B1A687B681344154A1360134BEB
:10084C001A687B681344114A136017E0124B1A683C
:10085C00104B1B68D31A7B600F4B1B680D4A13603F
:10086C000C4B1A687B6813440A4A13600A4B1A68CB
:10087C007B681344084A136000E000BF00BF0C37CC
:10088C00BD4680BC704700BFC8000020640100203A
:10089C0064000020680000205C0100206001002042
:1008AC006C00002080B500AF344B5B78022B27D056
:1008BC00022B3ADC002B02D0012B0CD035E00120AE
:1008CC0000F0CCFB0346002B31D02C4B01225A708C
:1008DC00FFF736FF2BE0012000F0C0FB0346002B96
:1008EC0002D1264B00225A70012000F0D1FB0346A6
:1008FC00002B1ED0214B02225A70FFF721FF18E06B
:10090C00012000F0ABFB0346002B02D11B4B002255
:10091C005A70012000F0D6FB0346002B0BD00120AF
:10092C0000F0EAFBFFF70CFF05E000BF04E000BF9E
:10093C0002E000BF00E000BF104B9B78002B02D000
:10094C00012B0CD018E0022000F088FB0346002B92
:10095C000FD00A4B01229A70FFF73AFF09E00220F0
:10096C0000F07CFB0346002B05D1044B00229A704F
:10097C0001E000BF00E000BF00BF80BDC40000204C
:10098C0080B582B000AF78607B68092B00F2808163
:10099C0001A252F823F000BFCD090008150A000887
:1009AC005D0A0008A50A0008ED0A0008350B0008CE
:1009BC007D0B0008C50B00080D0C0008550C000839
:1009CC0000220121B44801F0CAF800220221B248E9
:1009DC0001F0C5F800220421AF4801F0C0F8002254
:1009EC000821AD4801F0BBF800221021AA4801F003
:1009FC00B6F800222021A84801F0B1F801224021CC
:100A0C00A54801F0ACF843E101220121A24801F014
:100A1C00A6F800220221A04801F0A1F8002204212E
:100A2C009D4801F09CF8012208219B4801F097F8A1
:100A3C0001221021984801F092F8012220219648B9
:100A4C0001F08DF801224021934801F088F81FE154
:100A5C0000220121904801F082F8002202218E48E8
:100A6C0001F07DF8012204218B4801F078F8002276
:100A7C000821894801F073F800221021864801F002
:100A8C006EF801222021844801F069F800224021EF
:100A9C00814801F064F8FBE0002201217E4801F05E
:100AAC005EF8002202217C4801F059F80022042152
:100ABC00794801F054F800220821774801F04FF8EA
:100ACC0001221021744801F04AF8012220217248B9
:100ADC0001F045F8002240216F4801F040F8D7E0C2
:100AEC00012201216C4801F03AF8002202216A48E7
:100AFC0001F035F800220421674801F030F801229A
:100B0C000821654801F02BF801221021624801F000
:100B1C0026F800222021604801F021F80022402113
:100B2C005D4801F01CF8B3E0002201215A4801F0A5
:100B3C0016F801220221584801F011F80022042174
:100B4C00554801F00CF800220821534801F007F831
:100B5C0001221021504801F002F8002220214E48B9
:100B6C0000F0FDFF002240214B4800F0F8FF8FE021
:100B7C0000220121484800F0F2FF012202214648E0
:100B8C0000F0EDFF00220421434800F0E8FF0022B2
:100B9C000821414800F0E3FF002210213E4800F0FC
:100BAC00DEFF002220213C4800F0D9FF002240212A
:100BBC00394800F0D4FF6BE000220121364800F0E8
:100BCC00CEFF00220221344800F0C9FF002204218C
:100BDC00314800F0C4FF012208212F4800F0BFFF6C
:100BEC00012210212C4800F0BAFF012220212A48B2
:100BFC0000F0B5FF01224021274800F0B0FF47E08C
:100C0C0000220121244800F0AAFF002202212248E0
:100C1C0000F0A5FF002204211F4800F0A0FF0022D5
:100C2C0008211D4800F09BFF002210211A4800F0FB
:100C3C0096FF00222021184800F091FF002240214D
:100C4C00154800F08CFF23E000220121124800F02F
:100C5C0086FF00220221104800F081FF00220421AF
:100C6C000D4800F07CFF002208210B4800F077FFB4
:100C7C0001221021084800F072FF002220210648B2
:100C8C0000F06DFF00224021034800F068FF00BF18
:100C9C0000BF0837BD4680BD000C014080B582B056
:100CAC0000AF7860374A7B6852F823301846FFF75C
:100CBC0067FE7B68032B5FD801A252F823F000BFBC
:100CCC00DD0C0008070D0008310D00085B0D000855
:100CDC00002202212C4800F042FF012204212A4864
:100CEC0000F03DFF01220821274800F038FF0122C7
:100CFC001021254800F033FF3FE001220221224859
:100D0C0000F02DFF002204211F4800F028FF0122D3
:100D1C0008211D4800F023FF012210211A4800F081
:100D2C001EFF2AE001220221174800F018FF0122C1
:100D3C000421154800F013FF00220821124800F08E
:100D4C000EFF01221021104800F009FF15E00122CE
:100D5C0002210D4800F003FF012204210A4800F093
:100D6C00FEFE01220821084800F0F9FE00221021A5
:100D7C00054800F0F4FE00E000BF00BF0837BD4698
:100D8C0080BD00BFD40000200008014080B400AF3B
:100D9C001A4B1B681A4A82FB03129210DB17D31AE8
:100DAC00184A1360154B1968154B83FB01239A10D5
:100DBC00CB17D21A13469B0013445B00CA1A114B73
:100DCC005A60114B1B680E4A82FB03129210DB1700
:100DDC00D31A0C4A93600C4B1968094B83FB012303
:100DEC009A10CB17D21A13469B0013445B00CA1AF5
:100DFC00044BDA6000BFBD4680BC7047CC000020BD
:100E0C0067666666D4000020D000002080B400AF76
:100E1C00064B1B68013B054A1360054B1B68013BE5
:100E2C00034A136000BFBD4680BC7047CC00002055
:100E3C00D000002080B483B000AF78603960054AE0
:100E4C007B681360044A3B68136000BF0C37BD46D7
:100E5C0080BC7047CC000020D000002080B584B04E
:100E6C0000AFF860B9607A60FB68DBB21A462021EB
:100E7C000A4800F074FEBB68DBB21A4680210748B2
:100E8C0000F06DFE7B68DBB21A464021034800F08F
:100E9C0066FE00BF1037BD4680BD00BF0008014094
:100EAC0080B584B000AFF860B9607A60FB68DBB2E3
:100EBC001A464FF480710B4800F051FEBB68DBB250
:100ECC001A464FF48061074800F049FE7B68DBB29C
:100EDC001A464FF40071034800F041FE00BF103772
:100EEC00BD4680BD0008014080B582B000AF002334
:100EFC007B6096E04F4A7B68134419784E4A7B68B6
:100F0C0013440A461A704D4A7B6813441978494AAF
:100F1C007B6813440A461A70494A7B6852F823309E
:100F2C001846484A7B6852F823309BB2194600F0A9
:100F3C00FFFD03461946414A7B6813440A461A7062
:100F4C003E4A7B6813441A783A497B680B441B78F9
:100F5C009A4212D1384A7B6813441A7835497B6817
:100F6C000B441B789A4208D1344A7B681344197895
:100F7C00354A7B6813440A461A70334A7B6813441B
:100F8C001B78002B36D1314A7B6832F81330C72BD3
:100F9C000AD82E4A7B6832F81330013399B22B4AA7
:100FAC007B6822F8131039E0294A7B68134401222C
:100FBC001A70284A7B6832F81330312B2ED8254A08
:100FCC007B6832F81330013399B2224A7B6822F8DD
:100FDC001310204A7B6832F81330312B1ED91D4A6E
:100FEC007B68002122F813101B4A7B6813440122F2
:100FFC001A7013E0154A7B68002122F81310144A6A
:10100C007B68134400221A70124A7B68002122F874
:10101C001310114A7B68134400221A707B68013349
:10102C007B607B68022B7FF765AF00BF00BF083782
:10103C00BD4680BDEC000020F0000020E800002040
:10104C00700000207C000020E4000020FC00002048
:10105C00F400002004010020F800002080B483B0CC
:10106C0000AF78607B68022B01DD002308E0074AA3
:10107C007B6813441B78002B0CBF01230023DBB2CD
:10108C0018460C37BD4680BC704700BFE4000020FA
:10109C0080B483B000AF78607B68022B01DD002345
:1010AC0008E0074A7B6813441B78012B0CBF012313
:1010BC000023DBB218460C37BD4680BC704700BF1E
:1010CC00F400002080B483B000AF78607B68022B02
:1010DC0001DD002308E0074A7B6813441B78012BD1
:1010EC000CBF01230023DBB218460C37BD4680BC75
:1010FC00704700BFF800002080B483B000AF786068
:10110C00044A7B68134400221A7000BF0C37BD469A
:10111C0080BC7047F800002080B500AF00F01EFACC
:10112C0000F014F800F09AF800F04CF8054801F0C3
:10113C0073F9054B01221A60FFF7BCF8FFF74EFA62
:10114C00FAE700BF68010020C800002080B590B00D
:10115C0000AF07F1180328220021184601F018FDF2
:10116C003B1D00221A605A609A60DA601A610223F1
:10117C00BB610123BB621023FB6200237B6307F17D
:10118C001803184600F01CFD0346002B01D000F09C
:10119C00EBF80F237B600023BB600023FB60002374
:1011AC003B6100237B613B1D0021184600F088FF4A
:1011BC000346002B01D000F0D7F800BF4037BD46E6
:1011CC0080BD000080B586B000AF07F10803002297
:1011DC001A605A609A60DA603B4600221A605A60C4
:1011EC001D4B4FF080421A601B4B41F63F725A6008
:1011FC00194B00229A60184B0922DA60164B002218
:10120C001A61154B00229A61134801F0B5F8034698
:10121C00002B01D000F0A8F84FF48053BB6007F10D
:10122C00080319460C4801F04BFA0346002B01D079
:10123C0000F09AF800233B6000237B603B46194684
:10124C00054801F017FC0346002B01D000F08CF888
:10125C0000BF1837BD4680BD6801002080B586B040
:10126C0000AF07F1080300221A605A609A60DA6036
:10127C00284B9B69274A43F004039361254B9B69D8
:10128C0003F004037B607B68224B9B69214A43F08B
:10129C00080393611F4B9B6903F008033B603B6899
:1012AC00002240F2FE711C4800F059FC00227F2104
:1012BC001A4800F054FC40F2FE73BB600123FB6043
:1012CC0000233B6102237B6107F108031946124896
:1012DC0000F0B4FA7F23BB600123FB6000233B6169
:1012EC0002237B6107F1080319460C4800F0A6FAAB
:1012FC004FF46053BB600023FB6001233B6107F19B
:10130C0008031946054800F099FA00BF1837BD4686
:10131C0080BD00BF0010024000080140000C0140DD
:10132C0080B582B000AF7860002000F03BF801205F
:10133C0000F038F8022000F035F8032000F032F805
:10134C000120FEF727FF0220FEF724FF0320FEF703
:10135C0021FF7B681B68B3F1804F01D1FFF7C4FDFF
:10136C0000BF0837BD4680BD80B400AF72B600BF69
:10137C00FEE7000080B483B000AF786039600749A5
:10138C003B687A6841F82320054A3B68002142F803
:10139C00231000BF0C37BD4680BC70470C010020E9
:1013AC003401002080B483B000AF78600F4A7B68B2
:1013BC0052F82330002B13DD0C4A7B6852F8233093
:1013CC005A1E0A497B6841F82320084A7B6852F868
:1013DC002330002B04DC064A7B68012142F82310E1
:1013EC0000BF0C37BD4680BC704700BF0C0100200D
:1013FC003401002080B485B000AF154B9B69144AB2
:10140C0043F001039361124B9B6903F00103BB6032
:10141C00BB680F4BDB690E4A43F08053D3610C4B16
:10142C00DB6903F080537B607B680A4B5B68FB6075
:10143C00FB6823F0E063FB60FB6843F08063FB60B8
:10144C00044AFB68536000BF1437BD4680BC70472C
:10145C00001002400000014080B584B000AF7860FD
:10146C007B681B68B3F1804F13D10C4BDB690B4AC3
:10147C0043F00103D361094BDB6903F00103FB600B
:10148C00FB68002200211C2000F0A1F91C2000F0B8
:10149C00BAF900BF1037BD4680BD00BF0010024036
:1014AC0080B400AFFEE780B400AFFEE780B400AFBD
:1014BC00FEE780B400AFFEE780B400AFFEE780B477
:1014CC0000AF00BFBD4680BC704780B400AF00BF0A
:1014DC00BD4680BC704780B400AF00BFBD4680BC29
:1014EC00704780B500AF00F07FF800BF80BD0000F2
:1014FC0080B500AF024800F0DBFF00BF80BD00BF2D
:10150C006801002080B400AF00BFBD4680BC7047AE
:10151C00FFF7F8FF0B480C490C4A002302E0D458A3
:10152C00C4500433C4188C42F9D3094A094C002323
:10153C0001E013600432A242FBD301F005FBFFF77C
:10154C00EBFD70470000002094000020F02B0008F9
:10155C0094000020B4010020FEE7000080B500AF2D
:10156C00084B1B68074A43F010031360032000F07C
:10157C0023F90F2000F008F8FFF73CFF0023184672
:10158C0080BD00BF0020024080B582B000AF786003
:10159C00124B1A68124B1B7819464FF47A73B3FB33
:1015AC00F1F3B2FBF3F3184600F03BF90346002BC2
:1015BC0001D001230EE07B680F2B0AD8002279683A
:1015CC004FF0FF3000F003F9064A7B6813600023EC
:1015DC0000E0012318460837BD4680BD8800002076
:1015EC00900000208C00002080B400AF054B1B78CD
:1015FC001A46054B1B681344034A136000BFBD46D3
:10160C0080BC704790000020B001002080B400AF77
:10161C00024B1B681846BD4680BC7047B0010020C9
:10162C0080B485B000AF78607B6803F00703FB6083
:10163C000C4BDB68BB60BA684FF6FF031340BB6012
:10164C00FB681A02BB68134343F0BF6343F40033D7
:10165C00BB60044ABB68D36000BF1437BD4680BC76
:10166C00704700BF00ED00E080B400AF044BDB68B6
:10167C001B0A03F007031846BD4680BC704700BF29
:10168C0000ED00E080B483B000AF0346FB7197F926
:10169C000730002B0BDBFB7903F01F02064997F98F
:1016AC0007305B09012000FA02F241F8232000BF49
:1016BC000C37BD4680BC704700E100E080B483B0BD
:1016CC0000AF03463960FB7197F90730002B0ADB3A
:1016DC003B68DAB20C4997F907301201D2B20B44CD
:1016EC0083F800230AE03B68DAB20849FB7903F07F
:1016FC000F03043B1201D2B20B441A7600BF0C3715
:10170C00BD4680BC704700BF00E100E000ED00E08A
:10171C0080B489B000AFF860B9607A60FB6803F000
:10172C000703FB61FB69C3F10703042B28BF0423E8
:10173C00BB61FB690433062B02D9FB69033B00E058
:10174C0000237B614FF0FF32BB6902FA03F3DA43EB
:10175C00BB681A407B699A404FF0FF317B6901FAF4
:10176C0003F3D9437B680B40134318462437BD461B
:10177C0080BC704780B582B000AF78607B68013B5D
:10178C00B3F1807F01D301230FE00A4A7B68013B50
:10179C0053600F214FF0FF30FFF790FF054B0022F5
:1017AC009A60044B07221A60002318460837BD467E
:1017BC0080BD00BF10E000E080B582B000AF786063
:1017CC007868FFF72DFF00BF0837BD4680BD80B598
:1017DC0086B000AF0346B9607A60FB7300237B616F
:1017EC00FFF742FF78617A68B9687869FFF790FF74
:1017FC00024697F90F3011461846FFF75FFF00BFFE
:10180C001837BD4680BD80B582B000AF0346FB7172
:10181C0097F907301846FFF735FF00BF0837BD466C
:10182C0080BD80B582B000AF78607868FFF7A2FF0A
:10183C00034618460837BD4680BD000080B48BB007
:10184C0000AF7860396000237B6200233B6248E183
:10185C0001227B6A02FA03F3FB613B681B68FA699D
:10186C001340BB61BA69FB699A4240F037813B680F
:10187C005B68A34A93425ED0A14A934275D8A14AB1
:10188C00934258D09F4A93426FD89F4A934252D06A
:10189C009D4A934269D89D4A93424CD09B4A9342AD
:1018AC0063D89B4A934246D0994A93425DD8122BF7
:1018BC002AD8122B59D801A252F823F04319000848
:1018CC001D1900082F190008711900087719000854
:1018DC00771900087719000877190008771900089C
:1018EC00771900087719000877190008771900088C
:1018FC00771900087719000877190008771900087C
:10190C002519000839190008824A934213D02CE09B
:10191C003B68DB683B6229E03B68DB6804333B6275
:10192C0024E03B68DB6808333B621FE03B68DB6804
:10193C000C333B621AE03B689B68002B02D10423FA
:10194C003B6213E03B689B68012B05D108233B628B
:10195C007B68FA691A6109E008233B627B68FA69C3
:10196C005A6103E000233B6200E000BFBB69FF2B20
:10197C0001D87B6801E07B6804337B61BB69FF2B7A
:10198C0002D87B6A9B0002E07B6A083B9B003B61B0
:10199C007B691A680F213B6901FA03F3DB431A4098
:1019AC00396A3B6901FA03F31A437B691A603B6895
:1019BC005B6803F08053002B00F09080564B9B69C2
:1019CC00554A43F001039361534B9B6903F00103A8
:1019DC00BB60BB68514A7B6A9B08023352F82330C8
:1019EC00FB607B6A03F003039B000F2202FA03F3F4
:1019FC00DB43FA681340FB607B68494A93420DD085
:101A0C007B68484A934207D07B68474A934201D18E
:101A1C00022304E0032302E0012300E000237A6A9E
:101A2C0002F0030292009340FA681343FB603B49B7
:101A3C007B6A9B080233FA6841F823203B685B6899
:101A4C0003F48013002B06D0384B9A683749BB69D6
:101A5C0013438B6006E0354B9A68BB69DB43334913
:101A6C0013408B603B685B6803F40013002B06D0BB
:101A7C002E4BDA682D49BB691343CB6006E02B4B28
:101A8C00DA68BB69DB4329491340CB603B685B6870
:101A9C0003F40033002B06D0244B5A682349BB694E
:101AAC0013434B6006E0214B5A68BB69DB431F496B
:101ABC0013404B603B685B6803F48033002B06D00B
:101ACC001A4B1A681949BB6913430B6006E0174B94
:101ADC001A68BB69DB43154913400B607B6A013301
:101AEC007B623B681A687B6A22FA03F3002B7FF453
:101AFC00AFAE00BF00BF2C37BD4680BC704700BFE7
:101B0C0000003210000031100000221000002110E3
:101B1C0000001210000011100010024000000140E3
:101B2C0000080140000C014000100140000401407D
:101B3C0080B485B000AF78600B467B807B689A6878
:101B4C007B881340002B02D00123FB7301E00023A0
:101B5C00FB73FB7B18461437BD4680BC704780B4C2
:101B6C0083B000AF78600B467B8013467B707B782C
:101B7C00002B03D07A887B681A6103E07B881A04F7
:101B8C007B681A6100BF0C37BD4680BC704780B4BF
:101B9C0085B000AF78600B467B807B68DB68FB60B0
:101BAC007A88FB6813401A04FB68D9437B880B4086
:101BBC001A437B681A6100BF1437BD4680BC70475E
:101BCC0080B586B000AF78607B68002B01D1012313
:101BDC006CE27B681B6803F00103002B00F087802C
:101BEC00924B5B6803F00C03042B0CD08F4B5B689F
:101BFC0003F00C03082B12D18C4B5B6803F480337D
:101C0C00B3F5803F0BD1894B1B6803F40033002BD9
:101C1C006CD07B685B68002B68D1012346E27B6843
:101C2C005B68B3F5803F06D1804B1B687F4A43F459
:101C3C00803313602EE07B685B68002B0CD17B4BF0
:101C4C001B687A4A23F480331360784B1B68774AFD
:101C5C0023F4802313601DE07B685B68B3F5A02F31
:101C6C000CD1724B1B68714A43F4802313606F4B89
:101C7C001B686E4A43F4803313600BE06B4B1B689C
:101C8C006A4A23F480331360684B1B68674A23F459
:101C9C00802313607B685B68002B13D0FFF7B6FCC6
:101CAC00386108E0FFF7B2FC02463B69D31A642B9B
:101CBC0001D90323FAE15D4B1B6803F40033002BBD
:101CCC00F0D014E0FFF7A2FC386108E0FFF79EFCAF
:101CDC0002463B69D31A642B01D90323E6E1534B2B
:101CEC001B6803F40033002BF0D100E000BF7B68CD
:101CFC001B6803F00203002B63D04C4B5B6803F0B2
:101D0C000C03002B0BD0494B5B6803F00C03082B26
:101D1C001CD1464B5B6803F48033002B16D1434B2C
:101D2C001B6803F00203002B05D07B681B69012B99
:101D3C0001D00123BAE13D4B1B6823F0F8027B680C
:101D4C005B69DB00394913430B603AE07B681B6924
:101D5C00002B20D0364B01221A60FFF757FC38615C
:101D6C0008E0FFF753FC02463B69D31A022B01D95A
:101D7C0003239BE12D4B1B6803F00203002BF0D0D7
:101D8C002A4B1B6823F0F8027B685B69DB00274950
:101D9C0013430B6015E0264B00221A60FFF736FC4C
:101DAC00386108E0FFF732FC02463B69D31A022B7C
:101DBC0001D903237AE11D4B1B6803F00203002BAE
:101DCC00F0D17B681B6803F00803002B3AD07B68CA
:101DDC009B69002B19D0174B01221A60FFF716FCD8
:101DEC00386108E0FFF712FC02463B69D31A022B5C
:101DFC0001D903235AE10D4B5B6A03F00203002B5C
:101E0C00F0D0012000F09AFA1CE00A4B00221A6074
:101E1C00FFF7FCFB38610FE0FFF7F8FB02463B696C
:101E2C00D31A022B08D9032340E100BF0010024053
:101E3C0000004242800442429E4B5B6A03F0020364
:101E4C00002BE9D17B681B6803F00403002B00F026
:101E5C00A6800023FB75974BDB6903F08053002BA6
:101E6C000DD1944BDB69934A43F08053D361914B72
:101E7C00DB6903F08053BB60BB680123FB758E4BA1
:101E8C001B6803F48073002B18D18B4B1B688A4A98
:101E9C0043F480731360FFF7B9FB386108E0FFF778
:101EAC00B5FB02463B69D31A642B01D90323FDE031
:101EBC00814B1B6803F48073002BF0D07B68DB68CC
:101ECC00012B06D17B4B1B6A7A4A43F00103136248
:101EDC002DE07B68DB68002B0CD1764B1B6A754AB6
:101EEC0023F001031362734B1B6A724A23F0040341
:101EFC0013621CE07B68DB68052B0CD16D4B1B6AF5
:101F0C006C4A43F0040313626A4B1B6A694A43F040
:101F1C00010313620BE0674B1B6A664A23F0010353
:101F2C001362644B1B6A634A23F0040313627B68DD
:101F3C00DB68002B15D0FFF769FB38610AE0FFF76F
:101F4C0065FB02463B69D31A41F28832934201D9B0
:101F5C000323ABE0574B1B6A03F00203002BEED0BC
:101F6C0014E0FFF753FB38610AE0FFF74FFB024622
:101F7C003B69D31A41F28832934201D9032395E08D
:101F8C004C4B1B6A03F00203002BEED1FB7D012BA3
:101F9C0005D1484BDB69474A23F08053D3617B68FA
:101FAC00DB69002B00F08180424B5B6803F00C0373
:101FBC00082B61D07B68DB69022B46D13F4B00229A
:101FCC001A60FFF723FB386108E0FFF71FFB02469E
:101FDC003B69D31A022B01D9032367E0354B1B68ED
:101FEC0003F00073002BF0D17B681B6AB3F5803FC4
:101FFC0008D1304B5B6823F400327B689B682D4919
:10200C0013434B602B4B5B6823F474127B68196A87
:10201C007B685B6A0B43274913434B60274B0122B8
:10202C001A60FFF7F3FA386108E0FFF7EFFA02469F
:10203C003B69D31A022B01D9032337E01D4B1B68D4
:10204C0003F00073002BF0D02FE01C4B00221A6021
:10205C00FFF7DCFA386108E0FFF7D8FA02463B6973
:10206C00D31A022B01D9032320E0124B1B6803F077
:10207C000073002BF0D118E07B68DB69012B01D1D8
:10208C00012313E00B4B5B68FB60FB6803F48032AD
:10209C007B681B6A9A4206D1FB6803F470127B685A
:1020AC005B6A9A4201D0012300E0002318461837DE
:1020BC00BD4680BD001002400070004060004242EE
:1020CC0080B584B000AF786039607B68002B01D19B
:1020DC000123D0E06A4B1B6803F007033A689A426D
:1020EC0010D9674B1B6823F0070265493B68134303
:1020FC000B60634B1B6803F007033A689A4201D0EC
:10210C000123B8E07B681B6803F00203002B20D08E
:10211C007B681B6803F00403002B05D0594B5B68EC
:10212C00584A43F4E06353607B681B6803F0080370
:10213C00002B05D0534B5B68524A43F460535360F9
:10214C00504B5B6823F0F0027B689B684D4913434E
:10215C004B607B681B6803F00103002B40D07B684D
:10216C005B68012B07D1474B1B6803F40033002B32
:10217C0015D101237FE07B685B68022B07D1414BB3
:10218C001B6803F00073002B09D1012373E03D4B56
:10219C001B6803F00203002B01D101236BE0394BC8
:1021AC005B6823F003027B685B68364913434B6022
:1021BC00FFF72CFAF8600AE0FFF728FA0246FB68F2
:1021CC00D31A41F28832934201D9032353E02D4BA9
:1021DC005B6803F00C027B685B689B009A42EBD156
:1021EC00274B1B6803F007033A689A4210D2244B22
:1021FC001B6823F0070222493B6813430B60204BFA
:10220C001B6803F007033A689A4201D0012332E0BD
:10221C007B681B6803F00403002B08D0194B5B6828
:10222C0023F4E0627B68DB68164913434B607B68E0
:10223C001B6803F00803002B09D0124B5B6823F4D6
:10224C0060527B681B69DB000E4913434B6000F046
:10225C0021F802460B4B5B681B0903F00F030A497C
:10226C00CB5C22FA03F3094A1360094B1B6818462E
:10227C00FFF78AF9002318461037BD4680BD00BF12
:10228C000020024000100240C42B000888000020EF
:10229C008C00002080B487B000AF0023FB600023CB
:1022AC00BB6000237B6100237B6000233B611E4BE2
:1022BC005B68FB60FB6803F00C03042B02D0082B5B
:1022CC0003D027E0194B3B6127E0FB689B0C03F024
:1022DC000F03174AD35C7B60FB6803F48033002B3D
:1022EC0010D0114B5B685B0C03F00103114AD35CFB
:1022FC00BB607B680D4A02FB03F2BB68B2FBF3F3D5
:10230C007B6104E07B680C4A02FB03F37B617B6915
:10231C003B6102E0054B3B6100BF3B6918461C3733
:10232C00BD4680BC704700BF0010024000127A000E
:10233C00D42B0008E42B000800093D0080B485B0C4
:10234C0000AF78600A4B1B680A4AA2FB03235B0AA6
:10235C007A6802FB03F3FB6000BFFB685A1EFA604D
:10236C00002BF9D100BF00BF1437BD4680BC7047AD
:10237C0088000020D34D621080B582B000AF786029
:10238C007B68002B01D1012341E07B6893F83D3041
:10239C00DBB2002B06D17B68002283F83C207868E6
:1023AC00FFF75AF87B68022283F83D207B681A6895
:1023BC007B6804331946104600F06EFA7B680122E4
:1023CC0083F846207B68012283F83E207B6801223B
:1023DC0083F83F207B68012283F840207B68012230
:1023EC0083F841207B68012283F842207B6801221C
:1023FC0083F843207B68012283F844207B68012208
:10240C0083F845207B68012283F83D200023184681
:10241C000837BD4680BD000080B485B000AF786041
:10242C007B6893F83D30DBB2012B01D0012335E002
:10243C007B68022283F83D207B681B68DA687B6826
:10244C001B6842F00102DA607B681B68164A9342F3
:10245C0009D07B681B68B3F1804F04D07B681B6884
:10246C00124A934211D17B681B689B6803F00703E7
:10247C00FB60FB68062B10D07B681B681A687B68B6
:10248C001B6842F001021A6007E07B681B681A683F
:10249C007B681B6842F001021A600023184614374F
:1024AC00BD4680BC704700BF002C014000040040BA
:1024BC0080B582B000AF78607B681B681B6903F045
:1024CC000203022B22D17B681B68DB6803F002033A
:1024DC00022B1BD17B681B686FF002021A617B68B0
:1024EC0001221A777B681B689B6903F00303002B9E
:1024FC0003D0786800F0B4F905E0786800F0A7F92B
:10250C00786800F0B6F97B6800221A777B681B6844
:10251C001B6903F00403042B22D17B681B68DB6866
:10252C0003F00403042B1BD17B681B686FF00402BF
:10253C001A617B6802221A777B681B689B6903F41B
:10254C004073002B03D0786800F08AF905E07868B6
:10255C0000F07DF9786800F08CF97B6800221A771E
:10256C007B681B681B6903F00803082B22D17B686E
:10257C001B68DB6803F00803082B1BD17B681B6806
:10258C006FF008021A617B6804221A777B681B685B
:10259C00DB6903F00303002B03D0786800F060F9CB
:1025AC0005E0786800F053F9786800F062F97B6810
:1025BC0000221A777B681B681B6903F01003102B31
:1025CC0022D17B681B68DB6803F01003102B1BD136
:1025DC007B681B686FF010021A617B6808221A77FF
:1025EC007B681B68DB6903F44073002B03D07868AD
:1025FC0000F036F905E0786800F029F9786800F009
:10260C0038F97B6800221A777B681B681B6903F01A
:10261C000103012B0ED17B681B68DB6803F00103FF
:10262C00012B07D17B681B686FF001021A61786877
:10263C00FEF776FE7B681B681B6903F08003802B1A
:10264C000ED17B681B68DB6803F08003802B07D1FD
:10265C007B681B686FF080021A61786800F06BFA77
:10266C007B681B681B6903F04003402B0ED17B6811
:10267C001B68DB6803F04003402B07D17B681B68A9
:10268C006FF040021A61786800F0FCF87B681B68F8
:10269C001B6903F02003202B0ED17B681B68DB68C1
:1026AC0003F02003202B07D17B681B686FF02002FE
:1026BC001A61786800F036FA00BF0837BD4680BD55
:1026CC0080B584B000AF786039600023FB737B6801
:1026DC0093F83C30012B01D10223B4E07B6801223A
:1026EC0083F83C207B68022283F83D207B681B68C2
:1026FC009B68BB60BB6823F07703BB60BB6823F4AB
:10270C007F43BB607B681B68BA689A603B681B6838
:10271C00B3F5005F3ED0B3F5005F00F28780B3F5F0
:10272C00805F00F08680B3F5805F7FD8702B1AD065
:10273C00702B7BD8602B50D0602B77D8502B3CD093
:10274C00502B73D8402B58D0402B6FD8302B64D0E3
:10275C00302B6BD8202B60D0202B67D8002B5CD073
:10276C00102B5AD062E07B6818683B6899683B680C
:10277C005A683B68DB6800F05EF97B681B689B68F5
:10278C00BB60BB6843F07703BB607B681B68BA68AF
:10279C009A604FE07B6818683B6899683B685A6898
:1027AC003B68DB6800F047F97B681B689A687B68BC
:1027BC001B6842F480429A603CE07B6818683B6876
:1027CC0059683B68DB681A4600F0BEF87B681B68EA
:1027DC005021184600F015F92CE07B6818683B680E
:1027EC0059683B68DB681A4600F0DCF87B681B68AC
:1027FC006021184600F005F91CE07B6818683B68FE
:10280C0059683B68DB681A4600F09EF87B681B68C9
:10281C004021184600F0F5F80CE07B681A683B681C
:10282C001B681946104600F0ECF803E00123FB731B
:10283C0000E000BF7B68012283F83D207B6800220A
:10284C0083F83C20FB7B18461037BD4680BD80B416
:10285C0083B000AF786000BF0C37BD4680BC7047BA
:10286C0080B483B000AF786000BF0C37BD4680BC2D
:10287C00704780B483B000AF786000BF0C37BD46A2
:10288C0080BC704780B483B000AF786000BF0C3759
:10289C00BD4680BC7047000080B485B000AF786046
:1028AC0039607B681B68FB607B68254A934207D0C4
:1028BC007B68B3F1804F03D07B68224A934208D1E6
:1028CC00FB6823F07003FB603B685B68FA6813439A
:1028DC00FB607B681A4A934207D07B68B3F1804F48
:1028EC0003D07B68174A934208D1FB6823F44073EA
:1028FC00FB603B68DB68FA681343FB60FB6823F002
:10290C0080023B685B691343FB607B68FA681A6062
:10291C003B689A687B68DA623B681A687B689A62E3
:10292C007B68074A934203D13B681A697B681A6338
:10293C007B6801225A6100BF1437BD4680BC7047CA
:10294C00002C01400004004080B487B000AFF86058
:10295C00B9607A60FB681B6A7B61FB681B6A23F0B9
:10296C000102FB681A62FB689B693B613B6923F0BF
:10297C00F0033B617B681B013A6913433B617B6944
:10298C0023F00A037B617A69BB6813437B61FB68A4
:10299C003A699A61FB687A691A6200BF1C37BD46B6
:1029AC0080BC704780B487B000AFF860B9607A60C3
:1029BC00FB681B6A7B61FB681B6A23F01002FB68D7
:1029CC001A62FB689B693B613B6923F470433B6172
:1029DC007B681B033A6913433B617B6923F0A003BB
:1029EC007B61BB681B017A6913437B61FB683A69A5
:1029FC009A61FB687A691A6200BF1C37BD4680BCBD
:102A0C00704780B485B000AF786039607B689B6894
:102A1C00FB60FB6823F07003FB603A68FB681343B0
:102A2C0043F00703FB607B68FA689A6000BF1437B9
:102A3C00BD4680BC704780B487B000AFF860B96009
:102A4C007A603B60FB689B687B617B6923F47F4306
:102A5C007B613B681A027B681A43BB6813437A6933
:102A6C0013437B61FB687A699A6000BF1C37BD46D3
:102A7C0080BC704780B485B000AF786039607B68EB
:102A8C0093F83C30012B01D1022341E07B680122F9
:102A9C0083F83C207B68022283F83D207B681B680E
:102AAC005B68FB607B681B689B68BB60FB6823F002
:102ABC007003FB603B681B68FA681343FB607B6820
:102ACC001B68FA685A607B681B68144A934209D0E9
:102ADC007B681B68B3F1804F04D07B681B68104A7D
:102AEC0093420CD1BB6823F08003BB603B685B68EE
:102AFC00BA681343BB607B681B68BA689A607B68D2
:102B0C00012283F83D207B68002283F83C200023BF
:102B1C0018461437BD4680BC704700BF002C0140DE
:102B2C000004004080B483B000AF786000BF0C3765
:102B3C00BD4680BC704780B483B000AF786000BFE6
:102B4C000C37BD4680BC704770B500260C4D0D4C43
:102B5C00641BA410A64209D100F022F800260A4DED
:102B6C000A4C641BA410A64205D170BD55F8043B59
:102B7C0098470136EEE755F8043B98470136F2E7E3
:102B8C00E82B0008E82B0008E82B0008EC2B0008C9
:102B9C0003460244934200D1704703F8011BF9E746
:102BAC00F8B500BFF8BC08BC9E467047F8B500BF2E
:082BBC00F8BC08BC9E467047FE
:102BC40000000000000000000102030406070809D9
:102BD40002030405060708090A0B0C0D0E0F10105A
:042BE40001020000EA
:042BE80031010008AF
:042BEC000D010008CF
:102BF00000000000000000000000000000000000D5
:102C000001000000010000000100000001000000C0
:102C100001000000010000000100000001000000B0
:102C200001000000010000000100000001000000A0
:102C30006400000000000000000C0140000C014096
:102C4000000C01400000000000080000001000001F
:102C5000002000000500000003000000020000004A
:102C6000000C0140000C0140000C01400008000075
:102C700000100000002000000024F40010000000FC
:042C8000010000004F
:040000050800151DBD
:00000001FF
